:100000000C942A000C94AA000C94DA000C9447007B
:100010000C9447000C9447000C9447000C94470044
:100020000C9493000C9447000C9447000C944700E8
:100030000C9447000C9447000C9447000C94470024
:100040000C9447000C9447000C940A010C94470050
:100050000C94470011241FBECFE5D4E0DEBFCDBF16
:1000600013E0A0E6B0E0E0EEF6E102C005900D92EC
:10007000A230B107D9F723E0A2E0B3E001C01D929E
:10008000A031B207E1F70E943F030C946E0B0C9471
:1000900000001BB810BC88E089B988E18AB986E8FD
:1000A00080BD08955D9BFECF8CB90895CF93DF93FB
:1000B000EC018991882319F00E945200FACF2FEFAA
:1000C00081EE94E0215080409040E1F700C00000B4
:1000D000DF91CF910895CF93DF93282F64E60E949C
:1000E0003B08382F4CE94303C0011124820F911DB6
:1000F0006AE070E00E944708D62F205DC22F349F2F
:10010000C00D112480E3830F0E94520080E38D0F05
:100110000E9452008C2F9AE0D99F80191124DF9100
:10012000CF910C9452001F920F920FB60F92112490
:100130008F939F9380910E0390910F03019690935C
:100140000F0380930E039F918F910F900FBE0F901E
:100150001F9018951F920F920FB60F9211248F9334
:100160009F938091060390910703019769F41EBC49
:100170008CB59DB590930D0380930C031DBC1CBCE6
:1001800010920703109206038091060390910703D3
:10019000892B49F48EB581608EBD81E090E090930B
:1001A0000703809306039F918F910F900FBE0F90CE
:1001B0001F9018951F920F920FB60F9211248F93D4
:1001C0009F938091040390910503019769F41EBCED
:1001D0008CB59DB590930B0380930A031DBC1CBC8A
:1001E000109205031092040380910403909105037B
:1001F000892B49F48EB581608EBD81E090E09093AB
:100200000503809304039F918F910F900FBE0F9071
:100210001F9018951F920F920FB60F9211248F9373
:100220009F938091020390910303019769F41EBC90
:100230008CB59DB590930903809308031DBC1CBC2D
:100240001092030310920203809102039091030322
:10025000892B49F48EB581608EBD81E090E090934A
:100260000303809302039F918F910F900FBE0F9015
:100270001F90189510920F0310920E038FE08ABB07
:1002800080E281BB78941FBC089584E089BFD89A2E
:1002900095E39A95F1F70000D8981DBC1CBC91E439
:1002A0009EBD90E298BF88BF08B605FEFDCF1DBC7D
:1002B0001CBC81E08EBD80E288BF84E088BF1092C4
:1002C0000F0310920E0308B605FEFDCF66B577B595
:1002D0008FE39CE90197F1F700C0000080E090E017
:1002E0000E94420729E23CE349EE53E40E9498064B
:1002F00008958BB780648BBF85B7816085BF1DBCB7
:100300001CBC81E48EBDD99A95E39A95F1F7000063
:10031000D9981DBC1CBC8EBD80910C0390910D031F
:10032000EFE3FCE93197F1F700C000006AE370E009
:100330000E944708CB0108958BB780688BBF85B7B3
:10034000846085BF1DBC1CBC81E48EBDDA9A95E338
:100350009A95F1F70000DA981DBC1CBC8EBD609127
:100360000A0370910B038FE39CE90197F1F700C03A
:100370000000072E000C880B990B0E94420729E20F
:100380003CE349EE53E40E9498060E941107089549
:100390008BB780628BBF84B7806484BF1DBC1CBCDC
:1003A00081E48EBDDB9A95E39A95F1F70000DB9826
:1003B0001DBC1CBC8EBD60910803709109038FE3C6
:1003C0009CE90197F1F700C00000072E000C880B94
:1003D000990B0E94420729E23CE349EE53E40E9454
:1003E00098060E94110708950E9449002FEF81EEA0
:1003F00094E0215080409040E1F700C0000087ED7C
:1004000090E00E9456002FEF85EA9EE02150804048
:100410009040E1F700C000008CED90E00E94560093
:100420002FEF87EA91E6215080409040E1F700C02D
:10043000000089EE90E00E9456002FEF87EA91E6D7
:10044000215080409040E1F700C0000088EF90E02C
:100450000C945600DF92EF92FF920F931F93CF936D
:10046000DF93CDB7DEB7E2970FB6F894DEBF0FBECD
:10047000CDBFD82E8B017A012FEF81EE94E0215071
:1004800080409040E1F700C0000067E071E0CE01DD
:1004900001960E946F08CE0101960E9456002FEF30
:1004A00083ED90E3215080409040E1F700C00000D0
:1004B0008EE191E00E9456008D2D0E946B008CE22F
:1004C00091E00E9456000230110581F034F40130B1
:1004D000110599F487E391E00EC00330110549F04E
:1004E0000430110551F487E591E005C081E491E005
:1004F00002C08BE491E00E945600EF2819F085E6D7
:1005000091E002C08AE891E00E9456008AE10E94D0
:1005100052002FEF83E294EF215080409040E1F7AA
:1005200000C00000E2960FB6F894DEBF0FBECDBF4C
:10053000DF91CF911F910F91FF90EF90DF90089581
:10054000CF93DF93CDB7DEB7E2970FB6F894DEBF57
:100550000FBECDBF2FEF31EE84E021503040804000
:10056000E1F700C0000063EB71E0CE0101960E944C
:100570006F08CE0101960E9456009FEF23EB34ECEA
:1005800084E09150204030408040D9F700C0000006
:1005900084EC91E00E945600E2960FB6F894DEBF1C
:1005A0000FBECDBFDF91CF9108950F931F93CF93CF
:1005B000DF938C01EB018AEC91E00E9456002FEF53
:1005C00083ED90E3215080409040E1F700C00000AF
:1005D000012B19F088ED91E002C08EE092E00E94BC
:1005E00056002FEF80E792E0215080409040E1F7E5
:1005F00000C00000CE010E9456002FEF80E792E07D
:10060000215080409040E1F700C000008AE191E075
:100610000E9456002FEF87EA91E6215080409040DB
:10062000E1F700C0000086E492E00E9456002FEF40
:1006300087EA91E6215080409040E1F700C0000039
:100640008CE592E00E9456002FEF8BE792E9215053
:1006500080409040E1F700C000008EE692E00E94EA
:1006600056002FEF8BE792E9215080409040E1F750
:1006700000C00000DF91CF911F910F910895CF939B
:10068000DF93CDB7DEB7C857D1090FB6F894DEBFF8
:100690000FBECDBF0E9449000E943A012AEA36EE01
:1006A00086E991E02150304080409040D9F7000029
:1006B0008CE792E00E9456000E94F4011F928CE2A7
:1006C0008F9387E48F9385E28F9386E68F9383E3FE
:1006D0008F9388E48F9384ED8F9382E18F9383E8E7
:1006E0008F931F9283E08F9386E992E09F938F937D
:1006F0001F9282E38F938E010D5C1F4F1F930F9308
:100700000E947608B80180E090E00E94D5022FEFA9
:1007100039E688E1215030408040E1F700C0000018
:100720000FB6F894DEBF0FBECDBFE9961FAE1EAE6A
:10073000E997E7961FAE1EAEE79781E090E0E59659
:100740009FAF8EAFE597412C512CE3961FAE1EAEA6
:10075000E39721E030E0E1963FAF2EAFE197212C07
:10076000312CAF961FAE1EAEAF97AD969FAF8EAF3A
:10077000AD97AB961FAE1EAEAB97A9961FAE1EAE41
:10078000A997A7963FAF2EAFA79784E6682E712C46
:1007900093E0F92E22E3E22E025311090E94450153
:1007A0000E940A075B01C12CD12C812C912C3FEFB8
:1007B00083EC99E0315080409040E1F700C00000A8
:1007C0000E9445010E940A07A616B7060CF49FC0B6
:1007D0009501261B370B263031050CF098C0860E8C
:1007E000971E2FEFC21AD20A3AE0C316D104F9F6C7
:1007F000C401B6010E9447086B01A7968EAD9FAD5C
:10080000A797892B09F07BC0AB968EAD9FADAB97B8
:10081000861B970B97FF03C09195819591090597CA
:100820000CF475C0B6010D2C000C880B990B0E94BE
:1008300042074B015C01A9962EAD3FADA997B901C6
:10084000330F880B990B0E9442079B01AC01C50135
:10085000B4010E94980620E030E048EC52E40E9487
:10086000CE070E940A075301A61AB70A84EA92E04B
:100870000E9456008C2D0E946B0080EB92E00E943B
:1008800056008A2D0E946B008AE00E945200BF929F
:10089000AF921F92FF928DEB92E09F938F931F92E6
:1008A000EF921F930F930E947608B80181E090E0C9
:1008B0000E94D5020FB6F894DEBF0FBECDBF9AE5F9
:1008C000A916B1045CF040E050E061E070E083E024
:1008D00090E00E942A020E94A0020CC025E5A21608
:1008E000B10444F041E050E061E070E083E090E06A
:1008F0000E942A02AB96DFAECEAEAB9708C0A99697
:100900007FAF6EAFA997A7961FAE1EAEA7970E94A6
:1009100079014C01C12CD12CA12CB12C3FEF83ECDF
:1009200099E0315080409040E1F700C000000E9403
:100930007901881699060CF499C09401281B390B8B
:10094000263031050CF092C0A80EB91E2FEFC21A46
:10095000D20A3AE0C316D10409F7C501B6010E94D4
:1009600047086B01AD968EAD9FADAD97892B09F011
:1009700075C0C101861B970B97FF03C091958195A8
:10098000910905970CF472C0B6010D2C000C880B70
:10099000990B0E9442074B015C01AF962EAD3FAD13
:1009A000AF97B901330F880B990B0E9442079B0147
:1009B000AC01C501B4010E94980620E030E048EC8B
:1009C00052E40E94CE070E940A075301A61AB70AF2
:1009D00085EC92E00E9456008C2D0E946B0080EB0B
:1009E00092E00E9456008A2D0E946B008AE00E94CD
:1009F0005200BF92AF921F92FF9281ED92E09F93BF
:100A00008F931F92EF921F930F930E947608B80165
:100A100081E090E00E94D5020FB6F894DEBF0FBED1
:100A2000CDBF9AE5A916B1045CF040E050E062E069
:100A300070E083E090E00E942A020E94A0020CC0B5
:100A400025E5A216B10444F041E050E062E070E018
:100A500083E090E00E942A02160108C0AF967FAFA3
:100A60006EAFAF97AD961FAE1EAEAD970E949C01C4
:100A70005B01C12CD12C812C912C3FEF83EC99E0B0
:100A8000315080409040E1F700C000000E949C017E
:100A9000A616B7060CF499C09501261B370B263015
:100AA00031050CF092C0860E971E2FEFC21AD20AA3
:100AB0003AE0C316D10409F7C401B6010E94470801
:100AC0006B01E1968EAD9FADE197892B09F075C062
:100AD000C201861B970B97FF03C0919581959109E1
:100AE00005970CF472C0B6010D2C000C880B990B05
:100AF0000E9442074B015C01E3962EAD3FADE397A8
:100B0000B901330F880B990B0E9442079B01AC017E
:100B1000C501B4010E94980620E030E048EC52E4A0
:100B20000E94CE070E940A075301A61AB70A89ED50
:100B300092E00E9456008C2D0E946B0080EB92E0A8
:100B40000E9456008A2D0E946B008AE00E9452008B
:100B5000BF92AF921F92FF9285EE92E09F938F9388
:100B60001F92EF921F930F930E947608B80181E0C5
:100B700090E00E94D5020FB6F894DEBF0FBECDBF45
:100B80009AE5A916B1045CF040E050E063E070E043
:100B900083E090E00E942A020E94A0020CC025E59A
:100BA000A216B10444F041E050E063E070E083E05D
:100BB00090E00E942A02260108C0E3967FAF6EAF44
:100BC000E397E1961FAE1EAEE1970E94C8015B015C
:100BD000C12CD12C812C912C3FEF83EC99E031502A
:100BE00080409040E1F700C000000E94C801A616B6
:100BF000B7060CF4D3CD9501261B370B26303105F3
:100C00000CF0CCCD860E971E2FEFC21AD20A3AE016
:100C1000C316D10409F7C401B6010E9447086B014D
:100C2000E5968EAD9FADE597892B49F0E796DFAE4F
:100C3000CEAEE797E5961FAE1EAEE597AFCDE9962F
:100C40008EAD9FADE997861B970B97FF03C09195DB
:100C50008195910905970CF4A1CDB6010D2C000CDE
:100C6000880B990B0E9442074B015C01E7962EAD61
:100C70003FADE797B901330F880B990B0E944207EC
:100C80009B01AC01C501B4010E94980620E030E050
:100C900048EC52E40E94CE070E940A075301A61AAC
:100CA000B70A8DEE92E00E9456008C2D0E946B00D8
:100CB00080EB92E00E9456008A2D0E946B008AE031
:100CC0000E945200BF92AF921F92FF9289EF92E072
:100CD0009F938F931F930F930E947608B80181E032
:100CE00090E00E94D5020FB6F894DEBF0FBECDBFD4
:100CF0009AE5A916B1045CF040E050E064E070E0D1
:100D000083E090E00E942A020E94A0020CC025E528
:100D1000A216B10444F041E050E064E070E083E0EA
:100D200090E00E942A02E996DFAECEAEE99736CD7A
:100D30000E94AC060C9494070E948D0758F00E9404
:100D4000860740F029F45F3F29F00C947D0751118C
:100D50000C94C8070C9483070E94A50768F3992395
:100D6000B1F3552391F3951B550BBB27AA276217A7
:100D70007307840738F09F5F5F4F220F331F441FB4
:100D8000AA1FA9F335D00E2E3AF0E0E832D09150E8
:100D90005040E695001CCAF72BD0FE2F29D0660FD5
:100DA000771F881FBB1F261737074807AB07B0E818
:100DB00009F0BB0B802DBF01FF2793585F4F3AF01E
:100DC0009E3F510578F00C947D070C94C8075F3F57
:100DD000E4F3983ED4F3869577956795B795F795A4
:100DE0009F5FC9F7880F911D9695879597F908958C
:100DF000E1E0660F771F881FBB1F62177307840728
:100E0000BA0720F0621B730B840BBA0BEE1F88F736
:100E1000E09508950E9411076894B1110C94C807D9
:100E200008950E94AD0788F09F5798F0B92F992731
:100E3000B751B0F0E1F0660F771F881F991F1AF0C5
:100E4000BA95C9F714C0B13091F00E94C707B1E05C
:100E500008950C94C707672F782F8827B85F39F05B
:100E6000B93FCCF3869577956795B395D9F73EF45E
:100E700090958095709561957F4F8F4F9F4F089506
:100E8000E89409C097FB3EF4909580957095619524
:100E90007F4F8F4F9F4F9923A9F0F92F96E9BB27DA
:100EA0009395F695879577956795B795F111F8CF56
:100EB000FAF4BB0F11F460FF1BC06F5F7F4F8F4FC1
:100EC0009F4F16C0882311F096E911C0772321F0B7
:100ED0009EE8872F762F05C0662371F096E8862F4F
:100EE00070E060E02AF09A95660F771F881FDAF7A6
:100EF000880F9695879597F9089597F99F6780E8E9
:100F000070E060E008959FEF80EC089500240A945B
:100F10001616170618060906089500240A941216D4
:100F20001306140605060895092E0394000C11F407
:100F3000882352F0BB0F40F4BF2B11F460FF04C0B4
:100F40006F5F7F4F8F4F9F4F089557FD9058440F0D
:100F5000551F59F05F3F71F04795880F97FB991F18
:100F600061F09F3F79F087950895121613061406D5
:100F7000551FF2CF4695F1DF08C016161706180662
:100F8000991FF1CF86957105610508940895E8943D
:100F9000BB2766277727CB0197F908950E94E107C1
:100FA0000C9494070E94860738F00E948D0720F069
:100FB000952311F00C947D070C94830711240C9455
:100FC000C8070E94A50770F3959FC1F3950F50E0E5
:100FD000551F629FF001729FBB27F00DB11D639FEB
:100FE000AA27F00DB11DAA1F649F6627B00DA11D91
:100FF000661F829F2227B00DA11D621F739FB00D37
:10100000A11D621F839FA00D611D221F749F3327A6
:10101000A00D611D231F849F600D211D822F762F3F
:101020006A2F11249F5750409AF0F1F088234AF01C
:10103000EE0FFF1FBB1F661F771F881F9150504088
:10104000A9F79E3F510580F00C947D070C94C807CA
:101050005F3FE4F3983ED4F3869577956795B7950F
:10106000F795E7959F5FC1F7FE2B880F911D969529
:10107000879597F90895991B79E004C0991F9617F1
:1010800008F0961B881F7A95C9F78095089597FBFD
:10109000072E16F4009407D077FD09D00E945B0854
:1010A00007FC05D03EF4909581959F4F089570956B
:1010B00061957F4F0895AA1BBB1B51E107C0AA1F72
:1010C000BB1FA617B70710F0A61BB70B881F991FE9
:1010D0005A95A9F780959095BC01CD010895FB0123
:1010E000DC0101900D920020E1F70895AEE0B0E040
:1010F000ECE7F8E00C94450B0D891E898F89988DDB
:1011000026E02C831A83098397FF02C080E090E8D1
:1011100001979E838D83AE01455E5F4F698D7A8D09
:10112000CE0101960E94A6084D815E8157FD0AC03E
:101130002F813885421753070CF49A01F801E20F0A
:10114000F31F10822E96E4E00C94610BABE0B0E04C
:10115000ECEAF8E00C94370B6C017B018A01FC018E
:1011600017821682838181FFCCC1CE0101963C019A
:10117000F6019381F70193FD859193FF81917F01A2
:10118000882309F4BAC1853239F493FD859193FF20
:1011900081917F01853229F4B60190E00E949D0A79
:1011A000E7CF912C212C312CFFE1F315D8F08B32B5
:1011B00079F038F4803279F08332A1F4232D206164
:1011C0001DC08D3261F0803369F4232D216016C07B
:1011D000832D8260382EE32DE4603E2E2AC0F32D4D
:1011E000F8601DC037FC2DC020ED280F2A3040F0DC
:1011F0008E32B9F436FC81C1232D2064322E19C001
:1012000036FE06C08AE0989E200D1124922E11C051
:10121000EAE02E9E200D1124222EF32DF0623F2EA7
:1012200008C08C3621F4832D8068382E02C08836A1
:1012300041F4F70193FD859193FF81917F01811125
:10124000B3CF982F9F7D9554933028F40C5F1F4F98
:101250009FE399830DC0833631F0833771F0833576
:1012600009F059C021C0F801808189830E5F1F4FAA
:1012700088248394912C530113C02801F2E04F0E6F
:10128000511CF801A080B18036FE03C0692D70E0CA
:1012900002C06FEF7FEFC5010E94920A4C018201EC
:1012A000F32DFF773F2E16C0280122E0420E511C7D
:1012B000F801A080B18036FE03C0692D70E002C045
:1012C0006FEF7FEFC5010E94870A4C01F32DF06894
:1012D0003F2E820133FC1BC0822D90E088169906B8
:1012E000B0F4B60180E290E00E949D0A2A94F4CF07
:1012F000F50137FC859137FE81915F01B60190E0E1
:101300000E949D0A21102A9421E0821A91088114DA
:10131000910471F7E8C0843611F0893641F5F8017F
:1013200037FE07C060817181828193810C5F1F4FFE
:1013300008C060817181072E000C880B990B0E5F2D
:101340001F4FF32DFF763F2E97FF09C09095809594
:10135000709561957F4F8F4F9F4FF0683F2E2AE029
:1013600030E0A3010E94D90A882E861845C085372F
:1013700031F4232D2F7EB22E2AE030E025C0932DAC
:10138000997FB92E8F36C1F018F4883579F0B5C041
:10139000803719F0883721F0B0C0E92FE061BE2E08
:1013A000B4FE0DC0FB2DF460BF2E09C034FE0AC090
:1013B000292F2660B22E06C028E030E005C020E1CB
:1013C00030E002C020E132E0F801B7FE07C06081E2
:1013D0007181828193810C5F1F4F06C06081718192
:1013E00080E090E00E5F1F4FA3010E94D90A882E73
:1013F0008618FB2DFF773F2E36FE0DC0232D2E7F46
:10140000A22E891458F434FE0BC032FC09C0832D7F
:101410008E7EA82E05C0B82CA32C03C0B82C01C00A
:10142000B92CA4FE0FC0FE01E80DF11D80818033B0
:1014300021F49A2D997EA92E09C0A2FE06C0B3946C
:10144000B39404C08A2D867809F0B394A3FC11C02C
:10145000A0FE06C0B21488F4280C922C9B180EC073
:10146000B21460F4B60180E290E00E949D0AB39449
:10147000F7CFB21418F42B1802C0982C212CA4FE1C
:1014800010C0B60180E390E00E949D0AA2FE17C042
:10149000A1FC03C088E790E002C088E590E0B601B7
:1014A0000CC08A2D867859F0A1FE02C08BE201C0E3
:1014B00080E2A7FC8DE2B60190E00E949D0A8914AB
:1014C00038F4B60180E390E00E949D0A9A94F7CF29
:1014D0008A94F301E80DF11D8081B60190E00E942D
:1014E0009D0A8110F5CF222009F442CEB60180E298
:1014F00090E00E949D0A2A94F6CFF601868197819A
:1015000002C08FEF9FEF2B96E2E10C94530BFC018E
:101510000590615070400110D8F7809590958E0F1E
:101520009F1F0895FC016150704001900110D8F791
:10153000809590958E0F9F1F08950F931F93CF93C3
:10154000DF93FB01238121FD03C08FEF9FEF2CC0B0
:1015500022FF16C0468157812481358142175307E7
:1015600044F4A081B1819D012F5F3F4F31832083DF
:101570008C93268137812F5F3F4F3783268314C09A
:101580008B01EC01FB010084F185E02D0995892B8D
:10159000E1F6D80116968D919C91179701961796B2
:1015A0009C938E931697CE01DF91CF911F910F914F
:1015B0000895FA01AA27283051F1203181F1E894E9
:1015C0006F936E7F6E5F7F4F8F4F9F4FAF4FB1E036
:1015D0003ED0B4E03CD0670F781F891F9A1FA11D31
:1015E000680F791F8A1F911DA11D6A0F711D811D32
:1015F000911DA11D20D009F468943F912AE0269FF7
:1016000011243019305D3193DEF6CF010895462F55
:101610004770405D4193B3E00FD0C9F7F6CF462F36
:101620004F70405D4A3318F0495D31FD405241939F
:1016300002D0A9F7EACFB4E0A6959795879577955C
:101640006795BA95C9F700976105710508959B01E3
:10165000AC010A2E06945795479537952795BA956C
:10166000C9F7620F731F841F951FA01D08952F9245
:101670003F924F925F926F927F928F929F92AF9222
:10168000BF92CF92DF92EF92FF920F931F93CF936F
:10169000DF93CDB7DEB7CA1BDB0B0FB6F894DEBF06
:1016A0000FBECDBF09942A88398848885F846E842C
:1016B0007D848C849B84AA84B984C884DF80EE8076
:1016C000FD800C811B81AA81B981CE0FD11D0FB67F
:1016D000F894DEBF0FBECDBFED010895F894FFCFA3
:1016E00041542B43574D4F44453D330D0A0041545F
:1016F0002B43574A41503D222573222C2225732229
:101700000D0A0041542B43495053544152543D2239
:10171000544350222C226C6F676963616D656C2E97
:10172000636F6D222C38300D0A0041542B43495011
:1017300053454E443D00474554202F7570646174F5
:10174000652E7068703F753D0041542B43495043EE
:101750004C4F53450D0A0041540D0A0041542B4390
:10176000474154543D310D0A0041542B53415042DE
:10177000523D312C310D0A0041542B5341504252FD
:101780003D322C310D0A0041542B434D47533D222D
:1017900038303734383537353635220D0A00476151
:1017A00072626167652044756D70200020636F6E02
:1017B0007461696E73200044727920576173746597
:1017C00000576574205761737465004D69786564CE
:1017D000205761737465004D65646963616C2057BF
:1017E0006173746500206D6F7265207468616E208E
:1017F0003835252C20706C6561736520636F6C6CC7
:1018000065637420415341502E00206D6F72652036
:101810007468616E203930252C20706C65617365A9
:1018200020636F6C6C65637420757267656E746C91
:10183000792E004154443830373438353735363511
:101840003B0D0A004154480D0A0041542B485454A2
:1018500050494E49540D0A0041542B48545450509D
:101860004152413D2255524C222C22687474703AE8
:101870002F2F6C6F676963616D656C2E636F6D2FC1
:101880007570646174652E7068703F753D004154D9
:101890002B48545450504152413D2255524C222C19
:1018A00022687474703A2F2F6C6F676963616D657D
:1018B0006C2E636F6D2F7570646174652E70687027
:1018C0003F6169663D0041542B4854545050415289
:1018D000413D22434944222C310D0A0041542B48FA
:1018E000545450414354494F4E3D300D0A00415429
:1018F0002B485454505445524D0D0A00494F542022
:101900004368616C6C656E676520323031393A200E
:10191000414D53570A0025752D25752D25752D3000
:101920002D25750075312063757272656E743A00ED
:101930002070657263656E746167653A0025752D68
:10194000312D25750075322063757272656E743A9B
:101950000025752D322D2575007533206375727243
:10196000656E743A0025752D332D2575007534206C
:1019700063757272656E743A0025752D342D257568
:02198000000065
:00000001FF
